:030000000210519A
:0C105100787FE4F6D8FD7581200210982D
:10172B00D3EF9400EE940040147D727C00ED1D709D
:0D173B00011CED4C70F7EF1F70E61E80E3FF
:01174800227E
:031968000000225A
:10174900D3EF9400EE940040147DDC7C00ED1D7015
:0D175900011CED4C70F7EF1F70E61E80E3E1
:011766002260
:1017A200E4FDFCC3ED9FEC9E5010121968121968FB
:0A17B2001219680DBD00010C80E95A
:0117BC00220A
:0C190300C2B57F967E0012172BD2B522D1
:101867007580FFC2A5D2A6D2A7AF80C2A7EF20E797
:01187700F67A
:01187800224D
:10187900AE07121867C2A5C2A6AF068F80D2A7C24B
:02188900A72294
:10188B00AE07121867D2A5C2A6AF068F80D2A7C229
:02189B00A72282
:051959007F0102187976
:05195E007F0F02187963
:051963007F0C02187961
:0E18BE00ED6004EF4440FFEF4480FF02187914
:080003001218BEAF0302188BB6
:10163E0090001CEBF0A3EAF0A3E9F01218BE9000A4
:10164E001CE0FBA3E0FAA3E0F9120A7B60179000FE
:10165E001CA3E475F001120B0BA9F0FA120A7BFF22
:06166E0012188B80D92246
:101819007F381218797F0C1218797F061218797F90
:041829000102187927
:10079B005B76355D5B74355DBBB6D3ADCAB9D3C380
:1007AB00C3DCC2EBCBF80069643A00202020202088
:1007BB00202020202020202020202020202020004E
:1007CB002049444341524420202020202020005B1C
:1007DB0076355D5B74355DBFA8C6ACD1E9D6A4B3E5
:1007EB00C9B9A6007375636365737320202020203D
:1007FB0020006572726F7220202020202020005B69
:10080B0076355D5B74355DBFA8C6ACD1E9D6A4CA9D
:10081B00A7B0DC00207061737364776F7264202063
:10082B0020202020002020202020005B76355D5BDF
:10083B0074355DC3DCC2EBD5C8B720002020202067
:10084B00202020202020202020202020202000736A
:10085B0075636365737320202020202020202020C7
:10086B002060005B76355D5B74355DC3DCC2EBB439
:10087B00EDCEF3006572726F7200207365742069A0
:10088B00646361726420202020006C6F6164696E68
:10089B00672E2E2E2E2E20202020006F6B20202046
:1008AB002020202020202020202020005B76355D7A
:1008BB005B74355DBFA8C6ACD2D1B8FCD0C20020EA
:1008CB0020202020202020202020202000207365A5
:1008DB0074207061737364776F7264202020200022
:1008EB002020202020202020006C6F6164696E671F
:1008FB00202020202020202020005B76355D5B749B
:10090B00355DC3DCC2EBB8FCB8C4B3C9B9A600668D
:10091B00696E697368202020202020202020002071
:10092B002020202020202020202020202020005BA1
:10093B0076355D5B74355DC3C5D2D1BFAA006F70D0
:10094B00656E696E6720646F6F720066696E69739E
:10095B006820202020202020200077656C636F6D9D
:10096B0065206D696D6173756F002D2D2D2D2D2DEE
:0A097B002D2D2D2D2D2D2D2D2D2DB0
:1012630041004F0044006A0000000044005AFFFFA1
:10127300FFFF480052303030303030303049005EAC
:1012830030000000000000000041006700420068D9
:02129300000059
:10157800C2AF121841D2B81218CC1218197B017ACE
:1015880000795A9000047404F0E4FF1212CE7F141C
:101598007E0012172B7B017A0079529000047408A0
:1015A800F07F071212CE1217EFD2AF7BFF7A0779BE
:0615B8009B7F02020C49BA
:0A190F001219037FF47E010217494C
:0D18F6001219037F647E0012172B021903E4
:1010DD009000147410F07590F0E59064F060777FD7
:1010ED00057E0012172BE59064F0606AAF90EF2437
:1010FD0090602324C0601724E0600B24F0701DE481
:10110D00900014F080169000147401F0800E900081
:10111D00147402F080069000147403F075900FAFF4
:10112D0090EF24F9602424FC601724FE600A1470EB
:10113D0020900014E0F08019900014E02404F08059
:10114D0010900014E02408F08007900014E0240CA7
:0B115D00F0E590B40FFB900014E0FFE1
:011168002264
:100B66007B017A0079507F26121169EF60117B01B3
:100B76007A0079507F26121169EF60037F00227B8D
:100B8600017A00796A120D1AEF600B900068E4F0A2
:100B9600A304F07F00229000677401F0E4FF746AFA
:100BA6002FF582E43400F583E0C4540FFED3940994
:100BB6004005EE24378010746A2FF582E43400F580
:100BC60083E0C4540F2430FEEF25E02414F582E4BC
:100BD6003400F583EEF0746A2FF582E43400F58371
:100BE600E0540FFED394094005EE2437800F746A53
:100BF6002FF582E43400F583E0540F2430FEEF2510
:100C0600E02415F582E43400F583EEF00FEF64047A
:100C1600708C7BFF7A0779B27D01E4FF12163E7B6A
:100C2600017A0079147D017F0312163E7FE87E0368
:100C360012172B7BFF7A0779B67D01E4FF12163E69
:020C46007F012C
:010C48002289
:10148D00E4FEEF120B4014B50014B90114BD0214A3
:10149D00C10414C50514C90614CD0814D10914D5F9
:1014AD000A14D90D000014DB7E0180227E02801EFD
:1014BD007E03801A7E0480167E0580127E06800EC5
:1014CD007E07800A7E0880067E098002E4FEAF0654
:0114DD0022EC
:100026009000027410F078037C007D017BFF7A0952
:1000360079757E007F08120A55780C7C007D017B5D
:10004600FF7A09797D7E007F08120A55C200C20137
:1000560090000BE0FF90004FE06F600B1219599073
:10006600004FE090000BF090004FE0147003020187
:100076002614700302030B1470030203A124036009
:10008600030204EF7B30E4FDFF1200037BFF7A07D7
:1000960079CBE4FD7F0112163E120B66EF70030268
:1000A60004EF90005AE0FF90006AE06F70499000FC
:1000B6005BE0FF90006BE06F703D90005CE0FF90AE
:1000C600006CE06F703190005DE0FF90006DE06FB6
:1000D600702590006704F0D20190004F04F07BFF7A
:1000E6007A0779DAFF120C497BFF7A0779EF7D01EF
:1000F600E4FF12163E801F900068E4F0A304F07B34
:10010600FF7A0779FDFDE4FF12163E7BFF7A087938
:100116000A7F02120C497FE87E0312172B0204EFB6
:100126007B31E4FDFF1200037BFF7A08791FE4FDB3
:100136007F0112163EE4900001F01210DD900002DD
:10014600EFF0BF0C030203C6900002E0FFB40E07F7
:1001560090004FE004F022EFC394004005EF9403B3
:10016600401BEFC394044005EF94074010EFC3947F
:10017600084005EF940B4005EF640D7050900001A8
:10018600E0D39407502DA3E0FF12148DEF2430FF27
:10019600900001E02403F582E43400F583EFF0904B
:1001A6000001E0FF04F0740C2FF582E43400F583BF
:1001B600742AF07B017A00790C7D01E4FF12163E69
:1001C6007BFF7A0879307D017F0812163E90000287
:1001D600E0640B7041900001E0D39400401EE014EF
:1001E600F0E0FF2403F582E43400F583742DF07407
:1001F6000C2FF582E43400F583742DF07B017A0030
:10020600790C7D01E4FF12163E7BFF7A0879307D7A
:10021600017F0812163E900002E0B40302D200905D
:100226000001E064086003020306200003020306DF
:10023600C200900052E0FF900003E06F60030202EC
:10024600C6900053E0FF900004E06F707390005476
:10025600E0FF900005E06F7067900055E0FF9000AA
:1002660006E06F705B900056E0FF900007E06F704D
:100276004F900057E0FF900008E06F7043900058E1
:10028600E0FF900009E06F7037900059E0FF9000A2
:100296000AE06F702B90006704F0D20190004F04C3
:1002A600F07BFF7A087936FF120C497BFF7A0879D2
:1002B600477D01E4FF12163E7BFF7A08795A8029B2
:1002C600121903900068E4F0A304F07BFF7A087922
:1002D6006E7F02120C497BFF7A0879477D01E4FFA5
:1002E60012163E7BFF7A08797F7D01E4FF12163EE7
:1002F6007FE87E0312172B7BFF7A0879470204E119
:10030600C2000201407B32E4FDFF1200037BFF7A4C
:10031600087985E4FD7F0112163E120B66EF700325
:100326000204EFE4900000F0900000E0FF246AF57C
:1003360082E43400F583E0FE745A2FF582E434003B
:10034600F583EEF0900000E004F0E0B404DA7BFF01
:100356007A0879957D01E4FF12163E7B017A0079D1
:100366005A9000187404F0E4FF12132C7FC87E0024
:1003760012172B7BFF7A0879A67D01E4FF12163E41
:100386007BFF7A0879B77F02120C497FD07E07126D
:10039600172B7BFF7A0879CA0204E17B33E4FDFF61
:1003A6001200037BFF7A0879D8E4FD7F0112163E1E
:1003B600E4900001F01210DD900002EFF0BF0C0790
:1003C60090004FE014F022900002E0FFC39400403A
:1003D60005EF9403401BEFC394044005EF940740D8
:1003E60010EFC394084005EF940B4005EF640D70C1
:1003F6003412148DEF2430FF900001E0FE04F074F7
:10040600032EF582E43400F583EFF07B017A007960
:10041600037D01E4FF12163E7BFF7A0879EB7D012E
:100426007F0812163E900002E0B40B2C900001E00B
:1004360014F02403F582E43400F583742DF07B0177
:100446007A0079037D01E4FF12163E7BFF7A087974
:10045600EB7D017F0812163E900002E0B40302D243
:1004660000900001E06408707B300078C2009000C4
:1004760000F0900000E0FF2403F582E43400F583E9
:10048600E0FE74522FF582E43400F583EEF090001E
:1004960000E004F0E0B408DA7BFF7A0879F47D0125
:1004A600E4FF12163E7B017A007952900018740818
:1004B600F07F0712132C7BFF7A0979057F02120C55
:1004C600497BFF7A09791A7D01E4FF12163E7FE81F
:1004D6007E0312172B7BFF7A09792A7D01E4FF122E
:1004E600163E8005C2000203BB900067E06012E47E
:1004F600F012190F7BFF7A0879477D01E4FF121687
:100506003E900068E07002A3E06017E4900068F097
:10051600A3F01218F67BFF7A0879477D01E4FF12F3
:10052600163E300152C2017BFF7A0879477D01E40D
:10053600FF12163E12193C7BFF7A09793A7F0212A6
:100546000C497BFF7A0979497D01E4FF12163E7F4B
:10055600C87E0012172B7BFF7A0979567D01E4FFCE
:1005660012163E7FC87E0012172B7BFF7A0879474A
:070576007D01E4FF12163EB7
:01057D00225B
:10138A007F327E001217491215781219037BFF7AF1
:10139A00097965E4FDFF12163E7FE87E0312172BDA
:1013AA001219597F647E0012172B1210DDEFB40C4C
:1013BA001390004FE0D394004005E014F08005E458
:1013CA0090004FF0EFB40E0E90004FE004F0D3946B
:0B13DA000340037403F012002680CFD4
:10000E00E4FEC2A4EF25E0547E4480FF12160112D6
:04001E0017D8D2A479
:0100220022BB
:04170C00E4FD7F0178
:05171000900048EDF01F
:10171500C2A4EF25E0547EFF121601900048E0FFB9
:05172500121601D2A420
:01172A00229C
:0516C800F07D087F0821
:0A16CD00900047EDF0900046EFF0AA
:1016D700E4FE12000EAE07900046E0FFA3E0F45EC2
:0416E700FD021710D9
:0A178500900047EDF0900046EFF0F1
:10178F00E4FE12000EAE07900046E0FFA3E04EFD10
:03179F000217101E
:060E87007B017A0079D81E
:0E0E8D009000FFEBF0A3EAF0A3E9F0A3EDF074
:100E9B007D047F051216CD12170C7D807F0A121769
:100EAB0085E4900106F0900102E0FF900106E0FE60
:100EBB00C39F50219000FFE0FBA3E0FAA3E0F98E63
:100ECB0082758300120A94FD7F0912171090010698
:100EDB00E004F080D17D037F01121710900106749E
:100EEB00FFF07F0512000E900106E014F0E06004A5
:100EFB00EF30E2EE7F2212000E900103E0FBA3E045
:100F0B00FAA3E0F9EF120AC17F2112000E90010340
:0F0F1B00E0FBA3E0FAA3E0F9900001EF020AD394
:10057E00900039F0A37401F0A37400F0A374D8F0C6
:10058E00A37401F0A37400F0A374D6F07A0079D8A6
:04059E007B017F0C52
:1005A200900036EBF0A3EAF0A3E9F0900035EFF00B
:1005B20090004074FEF0E4A3F0A3F0EF24F4601086
:1005C20024FE70169000417412F0A37410F0800A99
:1005D2009000417477F0A37430F0900041E04480C1
:1005E200FD7F021217107D807F041216CD12170CA8
:1005F2007D807F0A121785E4900044F0A3F09000FA
:1006020039E0FF900044E0FCA3E0FDC39FEC9400BE
:100612005028900036E0FBA3E0FAA3E0F98D828C2B
:1006220083120A94FD7F09121710900045E004F02E
:1006320070CC900044E004F080C4900035E0FD7F6F
:1006420001121710900035E0B40C077D807F0D1267
:1006520017859000447407F0A374D0F07F04120051
:100662000E900043EFF0900045E024FFF09000442C
:10067200E034FFF0E07002A3E06011900043E0FF7D
:1006820020E009900042E0FEEF5E60D07D807F0DA9
:100692001216CD900044E07002A3E0700302078BB3
:1006A2007F0612000EEF541B600302078590004084
:1006B200F0A3E0FF900043E05F30E006900040745A
:1006C200FFF0900035E0640C600302078B7F0A1292
:1006D200000E900043EFF07F0C12000EEF5407FD66
:1006E2006029900043E024FFFFE434FFFEEF78032B
:1006F200C333CE33CED8F97C002DFFEC3EF9900007
:100702003DE0FBA3E0FAA3E0C98016900043E07548
:10071200F008A4FF90003DE0FBA3E0FAA3E0F9E5B6
:10072200F08FF0120B21900043E0700204F0900071
:1007320043E0D3941240037412F0E4900044F0A317
:10074200F0900043E0FFC3900045E09F900044E03A
:10075200940050357F0912000E90003AE0FBA3E0AE
:10076200FAA3E0F9900044E0FCA3E0F5828C83EF69
:10077200120AD3900045E004F070C6900044E004F1
:10078200F080BE90004074FEF07D807F0C121785D1
:0807920012170C900040E0FF7B
:01079A00223C
:0D11690090001CEFF0A3EBF0A3EAF0A3E967
:101176001216C87D077F0D1217107D037F141217F4
:101186008590001CE0900022F09000397401F0A3D5
:10119600F0A37400F0A37422F0A37401F0A374000A
:1011A600F0A37420F07A00792212059EEF70399030
:1011B6000020E07004A3E06410702D900022E0FE91
:1011C60090001DE0FBA3E0FAA3E0F9EE120AC1903D
:1011D6000023E0FE90001DE0FBA3E0FAA3E0F990F7
:0A11E6000001EE120AD380027FFE22
:0111F00022DC
:0B0D1A0090001CEBF0A3EAF0A3E9F04E
:100D2500E49000201216C8E4FD7F0D1217107D8097
:100D35007F0E1216CD9000237493F0A37420F090CB
:100D450000397402F07B01A314F0A37400F0A374BE
:100D550023F0A3EBF0A37400F0A37421F07A0079DB
:100D6500237F0C1205A290001FEFF07058FC74232E
:100D75002CF582E43400F583E0FE90001CE0FBA333
:100D8500E0FAA3E0F9AF048F82758300EE120AD36F
:100D9500900020E0FE74232FF582E43400F583E013
:100DA500FDEE6D900020F00CECB404C274232CF51C
:100DB50082E43400F583E0FF900020E06F60069048
:100DC500001F74FEF07D807F0E12178590001FE0D6
:010DD500FF1E
:010DD60022FA
:0B0DD7009000BCEBF0A3EAF0A3E9F0F1
:100DE2009000C17493F0A37470F0E49000C7F0FC1B
:100DF2009000BCE0FBA3E0FAA3E0F9AF048F827598
:100E02008300120A94FE74C32FF582E43400F58342
:100E1200EEF09000C7E0FE8F82758300120A94FD07
:100E2200EE6D9000C7F00CECB404C59001037401A0
:100E3200F0A37400F0A374C8F07B017A0079C17D3D
:100E420007120E8D1216C99000397409F0A37401AD
:100E5200F0A37400F0A374C1F0A37401F0A37400B2
:100E6200F0A374BFF07B017A0079C17F0C1205A256
:100E7200EF700F9000BFE07004A3E064187003FFEE
:040E820080027FFE6D
:010E86002249
:1011F100900079EFF0A3EDF0787B7C007D017E001B
:101201007F06120A5578817C007D01900073E0FB16
:10121100A3E0FAA3E0F97E007F06120A5590003997
:10122100740CF0A37401F0A37400F0A37479F0A31B
:101231007401F0A37400F0A37477F07B017A007954
:10124100797F0E1205A2900076EFF070097F0812E7
:10125100000EEF20E30690007674FEF0900076E039
:01126100FF8D
:011262002269
:0B0FC0009000A4EBF0A3EAF0A3E9F01E
:100FCB009000AA7430F0A3EFF09001037401F0A32A
:100FDB007400F0A374ACF07B017A0079AA7D021245
:100FEB000E8D9000397404F0A37401F0A37400F01B
:100FFB00A374AAF0A37401F0A37400F0A374A8F077
:10100B007B017A0079AA7F0C1205A29000A7EFF062
:10101B007028A3E07004A3E06490701E9000A4E01D
:10102B00FBA3E0FAA3E0F8AC02AD037B017A0079F5
:10103B00AA7E007F10120A5580069000A774FEF05E
:05104B009000A7E0FF8A
:01105000227D
:0B0F2A009000D3EBF0A3EAF0A3E9F085
:100F35009000D874A0F0A3EFF09001037401F0A322
:100F45007400F0A374DAF07D02120E8774041205A2
:100F55007EEF70169000D6E07004A3E06404700A7A
:100F65009000D8E0540F640A60027FFEEF704B7862
:100F7500D87C007D019000D3E0FBA3E0FAA3E0F963
:100F85007E007F10120A559001037401F0A37400CE
:100F9500F0A374E8F07D10120E87741212057EEF2F
:100FA50070169000D6E07004A3E06404700A900007
:0A0FB500D8E0540F640A60027FFECA
:010FBF00220F
:10143B009000ED7450F0E4A3F07B0190010304F0F5
:10144B00A37400F0A374EFF07A0079ED7D02120E15
:10145B008D9000397404F0A37401F0A37400F0A311
:10146B0074EDF0A37401F0A37400F0A374EBF07BA4
:10147B00017A0079ED7F0C1205A29000EAEFF07F64
:01148B000060
:01148C00223D
:1013E500D2A07F0A7E001217A2C2A07F0A7E001239
:1013F50017A2D2A07F0A7E001217A27D0F7F0112CD
:1014050017107F0A7E001217A27D3D7F111217105B
:101415007D1E7F2D121710E4FD7F2C1217107D8D78
:101425007F2A1217107D3E7F2B1217107D407F15E6
:061435001217107F0022D7
:10152D00EF644170401216C97D3D7F111217107D79
:10153D00867F171217107D7F7F261217107D1E7F55
:10154D002D121710E4FD7F2C1217107D8D7F2A129E
:10155D0017107D3E7F2B1217107FE87E031217A206
:0B156D0012189D80037FFF227F0022E8
:10189D007F1412000EEF540370077D037F1412178F
:0118AD0085B5
:0118AE002217
:07194C007D037F140216CD9C
:0E18CC001213E512194C12189D7F4102152DC2
:1017D800E4FFFEEF25E0FFC2A330A1034401FFD2DE
:0617E800A30EEEB408EDB3
:0117EE0022D8
:05160100900049EFF02C
:10160600E4A3F0900049E030E704D2A28002C2A22F
:10161600121968121968C2A3121968121968D2A39E
:10162600121968121968900049E025E0F0A3E00459
:07163600F0E0C3940840CC72
:01163D00228A
:0518DA001218DFD2B37B
:0818DF007F017E02DEFEDFFA4C
:0118E70022DE
:0F18AF00D2B41218DAC2B41218DFC2B30218DFB3
:0A191900C2B41218DAD2B40218DFCB
:0714DE001218AF7D017FA091
:0414E500AB07A905A3
:1014E900E4FDFAEBC4131313540124FF92B4EB2562
:1014F900E0FB1218DAC2B31218DF0DEDB408E4D21A
:10150900B41218DFD2B330B413E9B4010F0AEAD325
:1015190094C840F2C2B31218DF7F0022C2B3121876
:03152900DF7F0160
:01152C00229C
:1016A100E4FDFCD2B41218DFD2B31218DFEC25E04E
:1016B100FCA2B4E4334CFC1218DFC2B31218DF0DE4
:0616C100EDB408E4AF04E3
:0116C7002200
:1017BD0090001AEFF0AC051214DEE0FF7D0112145B
:0B17CD00E5AF04E4FD1214E502191959
:0216EB00AC074A
:1016ED001214DEAF047D011214E51218AF7D017FD7
:0E16FD00A11214E51216A1AD07121919AF05BE
:01170B0022BB
:1012CE00900001EBF0A3EAF0A3E9F0900000EFF03C
:1012DE00900005F0900004E0FF900000E02FFDE488
:1012EE0033FC900005E0FFC39DEC6480F874809899
:1012FE00502B1216EB900001E0FBA3E0FAA3E0F9ED
:10130E00EF120AC1900002E475F001120AF57F1483
:0D131E007E0012172B900005E004F080B750
:01132B00229F
:10132C00900015EBF0A3EAF0A3E9F0900014EFF0B5
:10133C00900019F0900018E0FF900014E02FFDE4ED
:10134C0033FC900019E0FFC39DEC6480F874809826
:10135C00502B900015E0FBA3E0FAA3E0F9120A7BF6
:10136C00FD1217BD900016E475F001120AF57F14FA
:0D137C007E0012172B900019E004F080B7DE
:011389002241
:101295004101070041010B0041010900410108001E
:06182D0012192C12192310
:0D1833007FA77EAB7D10DDFEDEFADFF60044
:011840002285
:10184100758900758901758CFF758AA4D2A9C28C2E
:03185100D2AF22F1
:03000B000215BE1D
:1015BE00C0E0C083C082C0D075D000C007C28C7599
:1015CE008CFF758AA490010AE0FF900107E0D39F7B
:1015DE005004D2B68002C2B6900107E004F0E0C318
:1015EE0094C84002E4F0D28CD007D0D0D082D08301
:0315FE00D0E03208
:09192300758CFF758AA4D28C2298
:0E18E800E4900107F0C28C758CFF758AA42273
:08192C0090010AEFF0021833EC
:10185400E4900107F07F0A12182D1218E8E49001B1
:0318640007F02268
:081934007F0512182D0218E8CE
:08193C007F0F12182D0218E8BC
:1012A50045008BFD000202FD45009FFD000203FC89
:1012B500450095FD000204FB45009AFD000221DE74
:0812C500450090FD000288774E
:1017EF00759850438920758BFD758DFDC2ABD28ED8
:0517FF00D2ACD2AF22C4
:081944008F993099FDC2992230
:0B16740090004CEBF0A3EAF0A3E9F0BB
:10167F00E4FEEEC39D501A90004CE0FBA3E475F01E
:10168F0001120B0BA9F0FA120A7BFF1219440E80FC
:01169F00E169
:0116A0002227
:030023000219536C
:06195300309802C2983238
:0E0C4900900014EFF0A3EBF0A3EAF0A3E9F0A3
:100C5700E490004BF0FDFC12180490004AEFF0906E
:100C6700001874FDF0E4A3F0EF2403A3F0A37401CC
:100C7700F0900014E0C454F0440190001CF0E4FC30
:100C8700FD90004BE0FF74182DF58274003CF5834E
:100C9700E0FEEF6E90004BF00DBD00010CED64051A
:100CA7004C70DEE4FCFD90004AE0FFC3ED9FEC943E
:100CB700005023A3E0FF900015E0FBA3E0FAA3E0B8
:100CC700F98D828C83120A94FEEF6E90004BF00D23
:100CD700BD00010C80D090004AE0FF7E00781D7CAB
:100CE700007D01900015E0FBA3E0FAA3E0F9120AEA
:100CF7005590004BE0FF90004AE0FE241DF582E48A
:100D07003400F583EFF07B017A007918EE2406FDB5
:030D17000216744D
:0B17670090010CEBF0A3EAF0A3E9F006
:1017720012180490010CE0FBA3E0FAA3E0F9AD0714
:03178200021674D8
:10105D0002138AE493A3F8E493A34003F68001F20C
:10106D0008DFF48029E493A3F85407240CC8C33394
:10107D00C4540F4420C8834004F456800146F6DF63
:10108D00E4800B0102040810204080901263E47E7E
:10109D00019360BCA3FF543F30E509541FFEE49358
:1010AD00A360010ECF54C025E060A840B8E493A31F
:1010BD00FAE493A3F8E493A3C8C582C8CAC583CA4A
:1010CD00F0A3C8C582C8CAC583CADFE9DEE780BE02
:0112CD000020
:10098500E709F608DFFA8046E709F208DFFA803E54
:1009950088828C83E709F0A3DFFA8032E309F60841
:1009A500DFFA8078E309F208DFFA807088828C83A9
:1009B500E309F0A3DFFA806489828A83E0A3F6085D
:1009C500DFFA805889828A83E0A3F208DFFA804C37
:1009D50080D280FA80C680D4806980F2803380100E
:1009E50080A680EA809A80A880DA80E280CA803377
:1009F50089828A83ECFAE493A3C8C582C8CCC583EF
:100A0500CCF0A3C8C582C8CCC583CCDFE9DEE780BE
:100A15000D89828A83E493A3F608DFF9ECFAA9F03D
:100A2500EDFB2289828A83ECFAE0A3C8C582C8CC93
:100A3500C583CCF0A3C8C582C8CCC583CCDFEADEAC
:100A4500E880DB89828A83E493A3F208DFF980CC0E
:100A550088F0EF60010E4E60C388F0ED2402B40407
:100A65000050B9F582EB2402B4040050AF232345AE
:060A750082239009D573F5
:100A7B00BB010689828A83E0225002E722BBFE0279
:090A8B00E32289828A83E49322AC
:100A9400BB010CE58229F582E5833AF583E0225017
:100AA40006E92582F8E622BBFE06E92582F8E22261
:0D0AB400E58229F582E5833AF583E493227B
:100AC100BB010689828A83F0225002F722BBFE0114
:020AD100F3220E
:100AD300F8BB010DE58229F582E5833AF583E8F059
:100AE300225006E92582C8F622BBFE05E92582C805
:020AF300F222ED
:100AF500C5F0F8A3E028F0C5F0F8E582158270028C
:060B05001583E038F02228
:100B0B00A3F8E0C5F025F0F0E5821582700215839D
:060B1B00E0C838F0E822FA
:100B2100BB010A89828A83F0E5F0A3F0225006F71F
:0F0B310009A7F01922BBFE06F3E5F009F319221C
:100B4000D083D082F8E4937012740193700DA3A344
:100B500093F8740193F5828883E473740293686058
:060B6000EFA3A3A380DF58
:10180400E4FFFE120A7B600C0FEF70010E09E97011
:05181400F20A80EF2242
:00000001FF
