:03000000021042A9
:0C104200787FE4F6D8FD7581200210894B
:10171B00D3EF9400EE940040147D727C00ED1D70AD
:0D172B00011CED4C70F7EF1F70E61E80E30F
:01173800228E
:031958000000226A
:10173900D3EF9400EE940040147DDC7C00ED1D7025
:0D174900011CED4C70F7EF1F70E61E80E3F1
:011756002270
:10179200E4FDFCC3ED9FEC9E50101219581219582B
:0A17A2001219580DBD00010C80E97A
:0117AC00221A
:0C18F300C2B57F967E0012171BD2B522F2
:101857007580FFC2A5D2A6D2A7AF80C2A7EF20E7A7
:01186700F68A
:01186800225D
:10186900AE07121857C2A5C2A6AF068F80D2A7C26B
:02187900A722A4
:10187B00AE07121857D2A5C2A6AF068F80D2A7C249
:02188B00A72292
:051949007F0102186996
:05194E007F0F02186983
:051953007F0C02186981
:0E18AE00ED6004EF4440FFEF4480FF02186934
:080003001218AEAF0302187BD6
:10162E0090001CEBF0A3EAF0A3E9F01218AE9000C4
:10163E001CE0FBA3E0FAA3E0F9120A6E601790001B
:10164E001CA3E475F001120AFEA9F0FA120A6EFF4D
:06165E0012187B80D92266
:101809007F381218697F0C1218697F061218697FD0
:041819000102186947
:10078E005B76355D5B74355DBBB6D3ADCAB9D3C38D
:10079E00C3DCC2EBCBF80069643A00202020202095
:1007AE00202020202020202020202020202020005B
:1007BE002049444341524420202020202020005B29
:1007CE0076355D5B74355DBFA8C6ACD1E9D6A4B3F2
:1007DE00C9B9A6007375636365737320202020204A
:1007EE0020006572726F7220202020202020005B76
:1007FE0076355D5B74355DBFA8C6ACD1E9D6A4CAAB
:10080E00A7B0DC00207061737364776F7264202070
:10081E0020202020002020202020005B76355D5BEC
:10082E0074355DC3DCC2EBD5C8B720002020202074
:10083E002020202020202020202020202020007377
:10084E0075636365737320202020202020202020D4
:10085E002060005B76355D5B74355DC3DCC2EBB446
:10086E00EDCEF3006572726F7200207365742069AD
:10087E00646361726420202020006C6F6164696E75
:10088E00672E2E2E2E2E20202020006F6B20202053
:10089E002020202020202020202020005B76355D87
:1008AE005B74355DBFA8C6ACD2D1B8FCD0C20020F7
:1008BE0020202020202020202020202000207365B2
:1008CE0074207061737364776F726420202020002F
:1008DE002020202020202020006C6F6164696E672C
:1008EE00202020202020202020005B76355D5B74A8
:1008FE00355DC3DCC2EBB8FCB8C4B3C9B9A600669B
:10090E00696E69736820202020202020202000207E
:10091E002020202020202020202020202020005BAE
:10092E0076355D5B74355DC3C5D2D1BFAA006F70DD
:10093E00656E696E6720646F6F720066696E6973AB
:10094E006820202020202020200077656C636F6DAA
:10095E0065206D696D6173756F002D2D2D2D2D2DFB
:0A096E002D2D2D2D2D2D2D2D2D2DBD
:1012540041004F004400690000000044005AFFFFB1
:10126400FFFF480052303030303030303049005EBB
:1012740030000000000000000041006700410068E9
:011284000069
:10156800C2AF121831D2B81218BC1218097B017A0E
:1015780000795A9000047404F0E4FF1212BE7F143C
:101588007E0012171B7B017A0079529000047408C0
:10159800F07F071212BE1217DFD2AF7BFF7A0779EE
:0615A8008E7F02020C3AE6
:0A18FF001218F37FF47E010217397E
:0D18E6001218F37F647E0012171B0218F326
:1010CE009000147410F07590F0E59064F060777FE6
:1010DE00057E0012171BE59064F0606AAF90EF2456
:1010EE0090602324C0601724E0600B24F0701DE490
:1010FE00900014F080169000147401F0800E900091
:10110E00147402F080069000147403F075900FAF03
:10111E0090EF24F9602424FC601724FE600A1470FA
:10112E0020900014E0F08019900014E02404F08068
:10113E0010900014E02408F08007900014E0240CB6
:0B114E00F0E590B40FFB900014E0FFF0
:011159002273
:100B59007B017A0079507F2612115AEF60117B01CF
:100B69007A0079507F2612115AEF60037F00227BA9
:100B7900017A007969120D0BEF6009900068740120
:100B8900F07F00229000677401F0E4FF74692FF58B
:100B990082E43400F583E0C4540FFED39409400580
:100BA900EE2437801074692FF582E43400F583E070
:100BB900C4540F2430FEEF25E02414F582E43400F8
:100BC900F583EEF074692FF582E43400F583E0547F
:100BD9000FFED394094005EE2437800F74692FF571
:100BE90082E43400F583E0540F2430FEEF25E0243D
:100BF90015F582E43400F583EEF00FEF6404708C90
:100C09007BFF7A0779A57D01E4FF12162E7B017A15
:100C19000079147D017F0312162E7FE87E031217D7
:100C29001B7BFF7A0779A97D01E4FF12162E7F014C
:010C39002298
:10147D00E4FEEF120B3314A50014A90114AD0214F0
:10148D00B10414B50514B90614BD0814C10914C569
:10149D000A14C90D000014CB7E0180227E02801E2D
:1014AD007E03801A7E0480167E0580127E06800ED5
:1014BD007E07800A7E0880067E098002E4FEAF0664
:0114CD0022FC
:100026009000027410F078037C007D017BFF7A0952
:1000360079687E007F08120A48780C7C007D017B77
:10004600FF7A0979707E007F08120A48C200C20151
:1000560090000BE0FF90004FE06F600B1219499083
:10006600004FE090000BF090004FE0147003020187
:100076002414700302030714700302039D24036013
:10008600030204EB7B30E4FDFF1200037BFF7A07DB
:1000960079BEE4FD7F0112162E120B59EF70030292
:1000A60004EB90005AE0FF900069E06F7049900001
:1000B6005BE0FF90006AE06F703D90005CE0FF90AF
:1000C600006BE06F703190005DE0FF90006CE06FB8
:1000D600702590006704F0D20190004F04F07BFF7A
:1000E6007A0779CDFF120C3A7BFF7A0779E27D0118
:1000F600E4FF12162E801D9000687401F07BFF7AD3
:100106000779F0FDE4FF12162E7BFF7A0779FD7F53
:1001160002120C3A7FE87E0312171B0204EB7B31B6
:10012600E4FDFF1200037BFF7A087912E4FD7F01EC
:1001360012162EE4900001F01210CE900002EFF09D
:10014600BF0C030203C2900002E0FFB40E0790004A
:100156004FE004F022EFC394004005EF9403401BE8
:10016600EFC394044005EF94074010EFC394084092
:1001760005EF940B4005EF640D7050900001E0D33D
:100186009407502DA3E0FF12147DEF2430FF90005A
:1001960001E02403F582E43400F583EFF0900001DA
:1001A600E0FF04F0740C2FF582E43400F583742A22
:1001B600F07B017A00790C7D01E4FF12162E7BFF9D
:1001C6007A0879237D017F0812162E900002E064DA
:1001D6000B7041900001E0D39400401EE014F0E063
:1001E600FF2403F582E43400F583742DF0740C2F9C
:1001F600F582E43400F583742DF07B017A00790CE6
:100206007D01E4FF12162E7BFF7A0879237D017F9C
:100216000812162E900002E0B40302D200900001EC
:10022600E064086003020302200003020302C20026
:10023600900052E0FF900003E06F60030202C4905A
:100246000053E0FF900004E06F7073900054E0FFED
:10025600900005E06F7067900055E0FF900006E0A3
:100266006F705B900056E0FF900007E06F704F9054
:100276000057E0FF900008E06F7043900058E0FFE1
:10028600900009E06F7037900059E0FF90000AE097
:100296006F702B90006704F0D20190004F04F07B42
:1002A600FF7A087929FF120C3A7BFF7A08793A7DA2
:1002B60001E4FF12162E7BFF7A08794D802712186B
:1002C600F39000687401F07BFF7A0879617F02126F
:1002D6000C3A7BFF7A08793A7D01E4FF12162E7BF1
:1002E600FF7A0879727D01E4FF12162E7FE87E03FD
:1002F60012171B7BFF7A08793A0204DDC20002015D
:100306003E7B32E4FDFF1200037BFF7A087978E436
:10031600FD7F0112162E120B59EF70030204EBE457
:10032600900000F0900000E0FF2469F582E43400BC
:10033600F583E0FE745A2FF582E43400F583EEF07F
:10034600900000E004F0E0B404DA7BFF7A087988D4
:100356007D01E4FF12162E7B017A00795A9000186F
:100366007404F0E4FF12131C7FC87E0012171B7B77
:10037600FF7A0879997D01E4FF12162E7BFF7A0831
:1003860079AA7F02120C3A7FD07E0712171B7BFFD9
:100396007A0879BD0204DD7B33E4FDFF1200037B9E
:1003A600FF7A0879CBE4FD7F0112162EE490000156
:1003B600F01210CE900002EFF0BF0C0790004FE055
:1003C60014F022900002E0FFC394004005EF94036E
:1003D600401BEFC394044005EF94074010EFC3940D
:1003E600084005EF940B4005EF640D703412147D40
:1003F600EF2430FF900001E0FE04F074032EF58236
:10040600E43400F583EFF07B017A0079037D01E4A3
:10041600FF12162E7BFF7A0879DE7D017F08121601
:100426002E900002E0B40B2C900001E014F024039F
:10043600F582E43400F583742DF07B017A007903AC
:100446007D01E4FF12162E7BFF7A0879DE7D017F9F
:100456000812162E900002E0B40302D200900001AA
:10046600E06408707B300078C200900000F09000D5
:1004760000E0FF2403F582E43400F583E0FE7452C5
:100486002FF582E43400F583EEF0900000E004F0EE
:10049600E0B408DA7BFF7A0879E77D01E4FF1216FB
:1004A6002E7B017A0079529000187408F07F0712AB
:1004B600131C7BFF7A0879F87F02120C3A7BFF7ACD
:1004C60009790D7D01E4FF12162E7FE87E031217CF
:1004D6001B7BFF7A09791D7D01E4FF12162E80052C
:1004E600C2000203B7900067E06012E4F01218FF42
:1004F6007BFF7A08793A7D01E4FF12162E90006898
:10050600E06012E4F01218E67BFF7A08793A7D0182
:10051600E4FF12162E300152C2017BFF7A08793AA7
:100526007D01E4FF12162E12192C7BFF7A09792D14
:100536007F02120C3A7BFF7A09793C7D01E4FF12B7
:10054600162E7FC87E0012171B7BFF7A0979497D1C
:1005560001E4FF12162E7FC87E0012171B7BFF7A5E
:0A05660008793A7D01E4FF12162E19
:010570002268
:10137A007F327E001217391215681218F37BFF7A32
:10138A00097958E4FDFF12162E7FE87E0312171B17
:10139A001219497F647E0012171B1210CEEFB40C8B
:1013AA001390004FE0D394004005E014F08005E468
:1013BA0090004FF0EFB40E0E90004FE004F0D3947B
:0B13CA000340037403F012002680CFE4
:10000E00E4FEC2A4EF25E0547E4480FF1215F112E7
:04001E0017C8D2A489
:0100220022BB
:0416FC00E4FD7F0189
:05170000900048EDF02F
:10170500C2A4EF25E0547EFF1215F1900048E0FFDA
:051715001215F1D2A441
:01171A0022AC
:0516B800F07D087F0831
:0A16BD00900047EDF0900046EFF0BA
:1016C700E4FE12000EAE07900046E0FFA3E0F45ED2
:0416D700FD021700F9
:0A177500900047EDF0900046EFF001
:10177F00E4FE12000EAE07900046E0FFA3E04EFD20
:03178F000217003E
:060E78007B017A0079D72E
:0E0E7E009000FEEBF0A3EAF0A3E9F0A3EDF084
:100E8C007D047F051216BD1216FC7D807F0A121799
:100E9C0075E4900105F0900101E0FF900105E0FE82
:100EAC00C39F50219000FEE0FBA3E0FAA3E0F98E73
:100EBC0082758300120A87FD7F09121700900105C5
:100ECC00E004F080D17D037F0112170090010574BE
:100EDC00FFF07F0512000E900105E014F0E06004B5
:100EEC00EF30E2EE7F2212000E900102E0FBA3E055
:100EFC00FAA3E0F9EF120AB47F2112000E9001025E
:0F0F0C00E0FBA3E0FAA3E0F9900001EF020AC6B0
:10057100900039F0A37401F0A37400F0A374D7F0D4
:10058100A37401F0A37400F0A374D5F07A0079D7B5
:040591007B017F0C5F
:10059500900036EBF0A3EAF0A3E9F0900035EFF018
:1005A50090004074FEF0E4A3F0A3F0EF24F4601093
:1005B50024FE70169000417412F0A37410F0800AA6
:1005C5009000417477F0A37430F0900041E04480CE
:1005D500FD7F021217007D807F041216BD1216FCE6
:1005E5007D807F0A121775E4900044F0A3F0900017
:1005F50039E0FF900044E0FCA3E0FDC39FEC9400CC
:100605005028900036E0FBA3E0FAA3E0F98D828C38
:1006150083120A87FD7F09121700900045E004F058
:1006250070CC900044E004F080C4900035E0FD7F7C
:1006350001121700900035E0B40C077D807F0D1284
:1006450017759000447407F0A374D0F07F0412006E
:100655000E900043EFF0900045E024FFF090004439
:10066500E034FFF0E07002A3E06011900043E0FF8A
:1006750020E009900042E0FEEF5E60D07D807F0DB6
:100685001216BD900044E07002A3E0700302077EDD
:100695007F0612000EEF541B60030207789000409E
:1006A500F0A3E0FF900043E05F30E0069000407467
:1006B500FFF0900035E0640C600302077E7F0A12AC
:1006C500000E900043EFF07F0C12000EEF5407FD73
:1006D5006029900043E024FFFFE434FFFEEF780338
:1006E500C333CE33CED8F97C002DFFEC3EF9900014
:1006F5003DE0FBA3E0FAA3E0C98016900043E07556
:10070500F008A4FF90003DE0FBA3E0FAA3E0F9E5C3
:10071500F08FF0120B14900043E0700204F090008B
:1007250043E0D3941240037412F0E4900044F0A324
:10073500F0900043E0FFC3900045E09F900044E047
:10074500940050357F0912000E90003AE0FBA3E0BB
:10075500FAA3E0F9900044E0FCA3E0F5828C83EF76
:10076500120AC6900045E004F070C6900044E0040B
:10077500F080BE90004074FEF07D807F0C121775EE
:080785001216FC900040E0FF99
:01078D002249
:0D115A0090001CEFF0A3EBF0A3EAF0A3E976
:101167001216B87D077F0D1217007D037F14121723
:101177007590001CE0900022F09000397401F0A3F4
:10118700F0A37400F0A37422F0A37401F0A3740019
:10119700F0A37420F07A007922120591EF7039904C
:1011A7000020E07004A3E06410702D900022E0FEA0
:1011B70090001DE0FBA3E0FAA3E0F9EE120AB49059
:1011C7000023E0FE90001DE0FBA3E0FAA3E0F99006
:0A11D7000001EE120AC680027FFE3E
:0111E10022EB
:0B0D0B0090001CEBF0A3EAF0A3E9F05D
:100D1600E49000201216B8E4FD7F0D1217007D80C6
:100D26007F0E1216BD9000237493F0A37420F090EA
:100D360000397402F07B01A314F0A37400F0A374CD
:100D460023F0A3EBF0A37400F0A37421F07A0079EA
:100D5600237F0C12059590001FEFF07058FC74234A
:100D66002CF582E43400F583E0FE90001CE0FBA342
:100D7600E0FAA3E0F9AF048F82758300EE120AC68B
:100D8600900020E0FE74232FF582E43400F583E022
:100D9600FDEE6D900020F00CECB404C274232CF52B
:100DA60082E43400F583E0FF900020E06F60069057
:100DB600001F74FEF07D807F0E12177590001FE0F5
:010DC600FF2D
:010DC7002209
:0B0DC8009000BBEBF0A3EAF0A3E9F001
:100DD3009000C07493F0A37470F0E49000C6F0FC2C
:100DE3009000BBE0FBA3E0FAA3E0F9AF048F8275A8
:100DF3008300120A87FE74C22FF582E43400F58360
:100E0300EEF09000C6E0FE8F82758300120A87FD24
:100E1300EE6D9000C6F00CECB404C59001027401B1
:100E2300F0A37400F0A374C7F07B017A0079C07D4E
:100E330007120E7E1216B99000397409F0A37401DB
:100E4300F0A37400F0A374C0F0A37401F0A37400C2
:100E5300F0A374BEF07B017A0079C07F0C12059574
:100E6300EF700F9000BEE07004A3E064187003FFFE
:040E730080027FFE7C
:010E77002258
:1011E200900078EFF0A3EDF0787A7C007D017E002C
:1011F2007F06120A4878807C007D01900072E0FB35
:10120200A3E0FAA3E0F97E007F06120A48900039B3
:10121200740CF0A37401F0A37400F0A37478F0A32B
:101222007401F0A37400F0A37476F07B017A007964
:10123200787F0E120595900075EFF070097F081205
:10124200000EEF20E30690007574FEF0900075E04A
:01125200FF9C
:011253002278
:0B0FB1009000A3EBF0A3EAF0A3E9F02E
:100FBC009000A97430F0A3EFF09001027401F0A33B
:100FCC007400F0A374ABF07B017A0079A97D021256
:100FDC000E7E9000397404F0A37401F0A37400F039
:100FEC00A374A9F0A37401F0A37400F0A374A7F088
:100FFC007B017A0079A97F0C1205959000A6EFF081
:10100C007028A3E07004A3E06490701E9000A3E02D
:10101C00FBA3E0FAA3E0F8AC02AD037B017A007904
:10102C00A97E007F10120A4880069000A674FEF07C
:05103C009000A6E0FF9A
:01104100228C
:0B0F1B009000D2EBF0A3EAF0A3E9F095
:100F26009000D774A0F0A3EFF09001027401F0A333
:100F36007400F0A374D9F07D02120E7874041205C1
:100F460071EF70169000D5E07004A3E06404700A97
:100F56009000D7E0540F640A60027FFEEF704B7872
:100F6600D77C007D019000D2E0FBA3E0FAA3E0F974
:100F76007E007F10120A489001027401F0A37400EB
:100F8600F0A374E7F07D10120E787412120571EF5B
:100F960070169000D5E07004A3E06404700A900017
:0A0FA600D7E0540F640A60027FFEDA
:010FB000221E
:10142B009000EC7450F0E4A3F07B0190010204F007
:10143B00A37400F0A374EEF07A0079EC7D02120E27
:10144B007E9000397404F0A37401F0A37400F0A330
:10145B0074ECF0A37401F0A37400F0A374EAF07BB6
:10146B00017A0079EC7F0C1205959000E9EFF07F83
:01147B000070
:01147C00224D
:1013D500D2A07F0A7E00121792C2A07F0A7E001259
:1013E5001792D2A07F0A7E001217927D0F7F0112FD
:1013F50017007F0A7E001217927D3D7F111217009C
:101405007D1E7F2D121700E4FD7F2C1217007D8DA8
:101415007F2A1217007D3E7F2B1217007D407F1516
:061425001217007F0022F7
:10151D00EF644170401216B97D3D7F111217007DA9
:10152D00867F171217007D7F7F261217007D1E7F85
:10153D002D121700E4FD7F2C1217007D8D7F2A12CE
:10154D0017007D3E7F2B1217007FE87E0312179246
:0B155D0012188D80037FFF227F002208
:10188D007F1412000EEF540370077D037F1412179F
:01189D0075D5
:01189E002227
:07193C007D037F140216BDBC
:0E18BC001213D512193C12188D7F4102151D12
:1017C800E4FFFEEF25E0FFC2A330A1034401FFD2EE
:0617D800A30EEEB408EDC3
:0117DE0022E8
:0515F100900049EFF03D
:1015F600E4A3F0900049E030E704D2A28002C2A240
:10160600121958121958C2A3121958121958D2A3EE
:10161600121958121958900049E025E0F0A3E00489
:07162600F0E0C3940840CC82
:01162D00229A
:0518CA001218CFD2B39B
:0818CF007F017E02DEFEDFFA5C
:0118D70022EE
:0F189F00D2B41218CAC2B41218CFC2B30218CFF3
:0A190900C2B41218CAD2B40218CFFB
:0714CE0012189F7D017FA0B1
:0414D500AB07A905B3
:1014D900E4FDFAEBC4131313540124FF92B4EB2572
:1014E900E0FB1218CAC2B31218CF0DEDB408E4D24A
:1014F900B41218CFD2B330B413E9B4010F0AEAD346
:1015090094C840F2C2B31218CF7F0022C2B3121896
:03151900CF7F0180
:01151C0022AC
:10169100E4FDFCD2B41218CFD2B31218CFEC25E07E
:1016A100FCA2B4E4334CFC1218CFC2B31218CF0D14
:0616B100EDB408E4AF04F3
:0116B7002210
:1017AD0090001AEFF0AC051214CEE0FF7D0112147B
:0B17BD00D5AF04E4FD1214D502190999
:0216DB00AC075A
:1016DD001214CEAF047D011214D512189F7D017F17
:0E16ED00A11214D5121691AD07121909AF05FE
:0116FB0022CC
:1012BE00900001EBF0A3EAF0A3E9F0900000EFF04C
:1012CE00900005F0900004E0FF900000E02FFDE498
:1012DE0033FC900005E0FFC39DEC6480F8748098A9
:1012EE00502B1216DB900001E0FBA3E0FAA3E0F90D
:1012FE00EF120AB4900002E475F001120AE87F14AE
:0D130E007E0012171B900005E004F080B770
:01131B0022AF
:10131C00900015EBF0A3EAF0A3E9F0900014EFF0C5
:10132C00900019F0900018E0FF900014E02FFDE4FD
:10133C0033FC900019E0FFC39DEC6480F874809836
:10134C00502B900015E0FBA3E0FAA3E0F9120A6E13
:10135C00FD1217AD900016E475F001120AE87F1427
:0D136C007E0012171B900019E004F080B7FE
:011379002251
:101285004101060041010A00410108004101070032
:06181D0012191C12191340
:0D1823007FA77EAB7D10DDFEDEFADFF60054
:011830002295
:10183100758900758901758CFF758AA4D2A9C28C3E
:03184100D2AF2201
:03000B000215AE2D
:1015AE00C0E0C083C082C0D075D000C007C28C75A9
:1015BE008CFF758AA4900109E0FF900106E0D39F8D
:1015CE005004D2B68002C2B6900106E004F0E0C329
:1015DE0094C84002E4F0D28CD007D0D0D082D08311
:0315EE00D0E03218
:09191300758CFF758AA4D28C22A8
:0E18D800E4900106F0C28C758CFF758AA42284
:08191C00900109EFF00218230D
:10184400E4900106F07F0A12181D1218D8E49001E2
:0318540006F02279
:081924007F0512181D0218D8FE
:08192C007F0F12181D0218D8EC
:1012950045008AFD000202FD45009EFD000203FC9B
:1012A500450094FD000204FB450099FD000221DE86
:0812B50045008FFD000288775F
:1017DF00759850438920758BFD758DFDC2ABD28EE8
:0517EF00D2ACD2AF22D4
:081934008F993099FDC2992240
:0B16640090004CEBF0A3EAF0A3E9F0CB
:10166F00E4FEEEC39D501A90004CE0FBA3E475F02E
:10167F0001120AFEA9F0FA120A6EFF1219340E8037
:01168F00E179
:011690002237
:030023000219437C
:06194300309802C2983248
:0E0C3A00900014EFF0A3EBF0A3EAF0A3E9F0B2
:100C4800E490004BF0FDFC1217F490004AEFF0908E
:100C5800001874FDF0E4A3F0EF2403A3F0A37401DB
:100C6800F0900014E0C454F0440190001CF0E4FC3F
:100C7800FD90004BE0FF74182DF58274003CF5835D
:100C8800E0FEEF6E90004BF00DBD00010CED640529
:100C98004C70DEE4FCFD90004AE0FFC3ED9FEC944D
:100CA800005023A3E0FF900015E0FBA3E0FAA3E0C7
:100CB800F98D828C83120A87FEEF6E90004BF00D3F
:100CC800BD00010C80D090004AE0FF7E00781D7CBA
:100CD800007D01900015E0FBA3E0FAA3E0F9120AF9
:100CE8004890004BE0FF90004AE0FE241DF582E4A6
:100CF8003400F583EFF07B017A007918EE2406FDC5
:030D08000216646C
:0B17570090010BEBF0A3EAF0A3E9F017
:101762001217F490010BE0FBA3E0FAA3E0F9AD0736
:03177200021664F8
:10104E0002137AE493A3F8E493A34003F68001F22B
:10105E0008DFF48029E493A3F85407240CC8C333A3
:10106E00C4540F4420C8834004F456800146F6DF72
:10107E00E4800B0102040810204080901254E47E9C
:10108E00019360BCA3FF543F30E509541FFEE49367
:10109E00A360010ECF54C025E060A840B8E493A32E
:1010AE00FAE493A3F8E493A3C8C582C8CAC583CA59
:1010BE00F0A3C8C582C8CAC583CADFE9DEE780BE11
:0112BD000030
:10097800E709F608DFFA8046E709F208DFFA803E61
:1009880088828C83E709F0A3DFFA8032E309F6084E
:10099800DFFA8078E309F208DFFA807088828C83B6
:1009A800E309F0A3DFFA806489828A83E0A3F6086A
:1009B800DFFA805889828A83E0A3F208DFFA804C44
:1009C80080D280FA80C680D4806980F2803380101B
:1009D80080A680EA809A80A880DA80E280CA803384
:1009E80089828A83ECFAE493A3C8C582C8CCC583FC
:1009F800CCF0A3C8C582C8CCC583CCDFE9DEE780CC
:100A08000D89828A83E493A3F608DFF9ECFAA9F04A
:100A1800EDFB2289828A83ECFAE0A3C8C582C8CCA0
:100A2800C583CCF0A3C8C582C8CCC583CCDFEADEB9
:100A3800E880DB89828A83E493A3F208DFF980CC1B
:100A480088F0EF60010E4E60C388F0ED2402B40414
:100A58000050B9F582EB2402B4040050AF232345BB
:060A680082239009C8730F
:100A6E00BB010689828A83E0225002E722BBFE0286
:090A7E00E32289828A83E49322B9
:100A8700BB010CE58229F582E5833AF583E0225024
:100A970006E92582F8E622BBFE06E92582F8E2226E
:0D0AA700E58229F582E5833AF583E4932288
:100AB400BB010689828A83F0225002F722BBFE0121
:020AC400F3221B
:100AC600F8BB010DE58229F582E5833AF583E8F066
:100AD600225006E92582C8F622BBFE05E92582C812
:020AE600F222FA
:100AE800C5F0F8A3E028F0C5F0F8E5821582700299
:060AF8001583E038F02236
:100AFE00A3F8E0C5F025F0F0E582158270021583AB
:060B0E00E0C838F0E82207
:100B1400BB010A89828A83F0E5F0A3F0225006F72C
:0F0B240009A7F01922BBFE06F3E5F009F3192229
:100B3300D083D082F8E4937012740193700DA3A351
:100B430093F8740193F5828883E473740293686065
:060B5300EFA3A3A380DF65
:1017F400E4FFFE120A6E600C0FEF70010E09E9702F
:05180400F20A80EF2252
:00000001FF
